S014000073686966745F6D61747269782E73726563FE
S11300005AC0000075C0000073C0000071C0000039
S11300106FC000006DC000006BC0000069C000002C
S113002067C0000065C0000063C0000061C000003C
S11300305FC00000A6C000005BC0000059C0000003
S113004057C0000055C0000053C0000051C000005C
S11300504FC000004DC000004BC0000049C000006C
S113006047C0000045C0000043C0000041C000007C
S11300703FC000003DC000003BC0000039C000008C
S113008037C0000035C0000033C0000065026702BD
S113009069026B026D026F0271027E0280028202AB
S11300A08402860288028A025A036D03980383033A
S11300B0AD03C103D50311241FBECFEFD0E4DEBFCF
S11300C0CDBF11E0A0E0B1E0E8E7FCE000E00BBF49
S11300D002C007900D92AA33B107D9F722E0AAE330
S11300E0B1E001C01D92AA37B207E1F729D4C2C515
S11300F087CFFC010FB6F894609176027091770275
S113010080917802909179020FBE309721F060833C
S1130110718382839383089560930601709307012A
S1130120809308019093090160936B0170936C01B3
S113013080936D0190936E0108958BE0809381000C
S11301408DE790E0909389008093880082E080930B
S11301506F001092850010928400809106019091A6
S11301600701A0910801B091090180936B0190935C
S11301706C01A0936D01B0936E018FB780688FBF3F
S113018008951F920F920FB60F9211248F939F938D
S1130190AF93BF9380916B0190916C01A0916D011D
S11301A0B0916E010197A109B10980936B019093FD
S11301B06C01A0936D01B0936E01892B8A2B8B2B5C
S11301C099F481E080936F01809106019091070179
S11301D0A0910801B091090180936B0190936C0187
S11301E0A0936D01B0936E01BF91AF919F918F91D8
S11301F00F900FBE0F901F90189520E030E028302C
S1130200310530F4992314F4289A07C0289805C0BE
S1130210992314F4289801C0289A880F991F2A9AC0
S11302202A982F5F3F4F2031310549F7299A2998A1
S11302300895181619065CF008950000215031093C
S1130240E1F74F5F5F4F8417950719F4089540E075
S113025050E027E033E0F1CF41988BB9409A000099
S1130260409882E090E0E5CF089581E090E0F4CFFB
S11302700895813118F48158EFCF08958155ECCF5A
S1130280089584E690E0D5DF88E390E0E5DF86E03A
S113029090E0E2DF8FE090E0DFDF81E090E0DCDF00
S11302A08AE090E0C6CF0895419A8BB9409A000045
S11302B0409881E090E0BDCF08951F93CF93DF93E2
S11302C0803138F0FB019081992321F18132A8F02B
S11302D021C0FB0190819923E9F08131D8F4EB012D
S11302E011E0180F90E0C5DF8991DEDF8881882353
S11302F089F0812F1131A1F70DC0EB0111E0180F26
S113030090E0B7DF8991D0DF8881882319F0812FAD
S11303101132A1F7DF91CF911F910895EAE7F0E040
S113032087E88083ACE7B0E08C9180648C93808113
S1130330806480830895ECE7F0E09081987F877073
S1130340892B8083EAE7F0E0808180648083808168
S113035086FDFDCF80917800909179000895892BD6
S1130360A1F580E0E8DF8093710281E0E4DF80930F
S1130370720290E0813A910534F084E080936A013E
S113038081E090E008952091710230E0213A310536
S113039034F081E080936A0181E090E00895213196
S11303A0310534F482E080936A0181E090E008959D
S11303B0419734F483E080936A0181E090E00895EA
S11303C010926A0181E090E0089580E090E0089541
S11303D00F931F93CF93DF93D82F862F90E06AE07B
S11303E070E066D38B01C82F672B69F4892B29F43D
S11303F08D2F3FDF80E358DF11C08D2F3ADF80E37C
S11304008C0F52DF0BC08D2F34DF80E3800F4CDF65
S113041081E08D0F2EDF80E38C0F46DFDF91CF91DB
S11304201F910F9108951F93CF93DF93E4E7F2E0B8
S11304301081D181D6D387709078992324F40197C1
S1130440886F9F6F0196C1E0C80F1C1799F3C9D339
S113045087709078992324F40197886F9F6F019691
S11304608F5FD817A1F3E4E7F2E0C0838183DF91C3
S1130470CF911F910895E1E7F1E0908141812091AE
S113048069012230C0F0E5E7F1E0225030E0220FAC
S1130490331F220F331F27583E4F8081981307C004
S11304A08181481304C081E08093680108953496E3
S11304B0E217F30791F7089590E0FC013297E730D3
S11304C0F10588F4EA5BFF4F28C322E00DC024E065
S11304D00BC028E009C020E107C020E205C020E4E9
S11304E003C020E801C021E0862F90E0FC01329790
S11304F0E730F10588F4E35BFF4F0FC382E00DC0E2
S113050084E00BC088E009C080E107C080E205C038
S113051080E403C080E801C081E090E0922B08955C
S1130520EF92FF920F931F93CF93DF93892B01F5E3
S1130530809169018823E1F0C1E7D1E000E010E097
S11305400F2EF4E7EF2EF2E0FF2EF02D6981888163
S1130550B3DF53DEF70161818081AEDF4EDE0F5FD2
S11305601F4F24968091690190E00817190774F3CE
S113057080E090E0DF91CF911F910F91FF90EF9079
S1130580089590916901E92FF0E0EE0FFF1FEE0F3F
S1130590FF1FEF58FE4F808361839F5F9093690133
S11305A00895FF920F931F93CF93DF939091690166
S11305B0992309F44DC0F62E082F10E0C4E7D2E0C9
S11305C0212F30E0F901EE0FFF1FEE0FFF1FEF5850
S11305D0FE4F8081828381818383111120C0220F89
S11305E0331F220F331FF901EF58FE4F0083F182AE
S11305F042DF8881081326C08981F81223C0E09164
S11306006901F0E0EE0FFF1FEE0FFF1FE359FE4FED
S1130610638170E0828190E0B4DF05DF13C0D9010B
S1130620AA0FBB1FAA0FBB1FAF58BE4F220F331F09
S1130630220F331FF901E359FE4F82818C9383818A
S113064011968C931F5F80916901181708F4B8CF35
S1130650DF91CF911F910F91FF90089590916901BF
S1130660943018F41092730203C093509093730261
S113067098DFFBDD67E171E081E01FDE60917302CA
S113068088E0A6DE62E171E081E117DE609170012D
S11306908DE19ECE0895CF93DF93FC01D0B190B14C
S11306A09095C92FC071E730F10508F084C0EC5A69
S11306B0FF4F33C21092690180E090E09EDD6FE14C
S11306C071E080E1FADDD3FFDBC031E020E0C1114D
S11306D001C030E0832F922F70C086E080936701C1
S11306E083E08093660163E086E04BDF63E087E0AC
S11306F048DF63E088E045DF96DE60916601809123
S11307006701ACDF72C0CC2329F01092690181E04B
S113071090E0C4C080916801813009F4B4C0809134
S11307206A01833009F486C0843009F071C095C031
S1130730CC2329F01092690181E090E0AFC0809150
S11307406801813009F4A2C080916A01833009F400
S113075071C0843009F049C080C0CC2329F01092C4
S1130760690181E090E09AC080916801813009F4C8
S113077090C080916A018130C1F1823009F05AC081
S113078047C0CC2329F01092690181E090E086C033
S113079080916801813009F47FC080916A018130C1
S11307A021F1823009F059C033C05FDD6DE271E0A0
S11307B081E083DD15C080E090E08330910541F154
S11307C03CF4009769F08230910509F067C00DC0D0
S11307D08430910579F18530910509F43EC05EC0FD
S11307E01092680180E090E059C080916701811106
S11307F004C088E08093670103C08150809367013F
S1130800609166018091670129DF82E090E046C033
S113081080916701883018F01092670103C08F5FE0
S113082080936701609166018091670117DF83E01F
S113083090E034C080916601811104C088E0809307
S1130840660103C0815080936601609166018091C6
S1130850670104DF84E090E021C080916601883064
S113086020F081E08093660103C08F5F809366016E
S11308706091660180916701F1DE85E090E00EC031
S113088081E090E00BC086E090E008C086E090E054
S113089005C086E090E002C086E090E0DF91CF9151
S11308A00895F999FECF1FBA92BD81BD60BDFA9A31
S11308B0F99A0895F999FECF92BD81BDF89A80B551
S11308C008958230910509F12CF4009759F00197AD
S11308D091F005C08330910531F1049771F180E006
S11308E090E0089561E18091040190910501D9DFC0
S11308F081E090E008958091040190910501DADF90
S11309008093700182E090E00895609173022091D9
S113091070012617A0F48091040190910501C1DFB4
S113092083E090E008958091040190910501C2DF75
S11309308093700184E090E0089582E090E008954F
S1130940CF93DF93CDB7DEB728970FB6F894DEBF09
S11309500FBECDBF11B81FEF12B914B915B817B92E
S113096018B81AB91BB88DDCD9DC89E190E0C1DB79
S1130970CB013AD188E0EAE0F1E0DE011196019082
S11309800D928A95E1F7EBE5F1E010838DE790E0B5
S1130990A0E0B0E081839283A383B48385839683AC
S11309A0A783B0878BE493E092878187E0E5F1E049
S11309B0108381E090E0A0E0B0E081839283A38380
S11309C0B48385839683A783B08780E992E0928776
S11309D08187E5E4F1E010838AE090E0A0E0B0E0F4
S11309E081839283A383B48385839683A783B0870B
S11309F08FEA91E092878187EAE3F1E0108385E052
S1130A0090E0A0E0B0E081839283A383B4838583E4
S1130A109683A783B08781E694E09287818761E01B
S1130A2070E080E090E078DB88DB7E0189E0E80E0E
S1130A30F11CDE0111966D01F601019111916F0116
S1130A40D80115964D915D916D917C9118971196F1
S1130A508D919D910D90BC91A02D481759076A075F
S1130A607B0781F4F80180810184F285E02D082E52
S1130A70000C990B0995D8018C93F8011582168204
S1130A8017821086F80185819681A781B085019629
S1130A90A11DB11D85839683A783B087EC14FD0443
S1130AA059F680916F018823E1F310926F01C1CF51
S1130AB097FB072E16F4009406D077FD08D036D0A5
S1130AC007FC05D03EF4909581959F4F089570954D
S1130AD061957F4F0895A1E21A2EAA1BBB1BFD014D
S1130AE00DC0AA1FBB1FEE1FFF1FA217B307E40709
S1130AF0F50720F0A21BB30BE40BF50B661F771F61
S1130B00881F991F1A9469F7609570958095909540
S1130B109B01AC01BD01CF010895EE0FFF1F00241E
S1130B20001C0BBE0790F691E02D0994AA1BBB1B79
S1130B3051E107C0AA1FBB1FA617B70710F0A61BD9
S1130B40B70B881F991F5A95A9F780959095BC01FA
S1130B50CD0108958F929F92AF92BF92CF92DF9270
S1130B60EF92FF92CF93DF93EC01688179818A81C0
S1130B709B81611571058105910521F464E279ED8C
S1130B808BE597E02DE133EF41E050E038D04901A7
S1130B905A019B01AC01A7EAB1E44DD06B017C0181
S1130BA0ACEEB4EFA501940152D0DC01CB018C0D65
S1130BB09D1DAE1DBF1DB7FF03C00197A109B0481D
S1130BC088839983AA83BB839F77DF91CF91FF901A
S1130BD0EF90DF90CF90BF90AF909F908F9008954B
S1130BE0B9CF80E091E0B6CFA0E0B0E080930001FF
S1130BF090930101A0930201B09303010895052E7F
S1130C0097FB16F400940FD057FD05D064DF07FC62
S1130C1002D046F408C050954095309521953F4F39
S1130C204F4F5F4F089590958095709561957F4FD4
S1130C308F4F9F4F08950FD0A59F900DB49F900D97
S1130C40A49F800D911D11240895B7FFF4CFF3DF05
S1130C50821B930B0895A29FB001B39FC001A39F71
S1130C60700D811D1124911DB29F700D811D1124E1
S10B0C70911D0895F894FFCFD3
S1130C78010000006100010000003A0145015B0128
S1130C885001486967682053636F72653A200020F1
S1130C985072657373205374617274210047616DD7
S10D0CA865204F7665722E2E0000C1
S9030000FC
