S0110000536E616B6547616D652E73726563A7
S11300005CC0000077C0000075C0000073C0000031
S113001071C000006FC000006DC000006BC0000024
S113002069C0000067C0000065C0000063C0000034
S113003061C00000A8C000005DC000005BC00000FB
S113004059C0000057C0000055C0000053C0000054
S113005051C000004FC000004DC000004BC0000064
S113006049C0000047C0000045C0000043C0000074
S113007041C000003FC000003DC000003BC0000084
S113008039C0000037C0000035C00000E702E902B3
S1130090EB02ED02EF02F102F30200030203040398
S11300A0060308030A030C037B039F03A603AC03A4
S11300B0E303CB03FB0313042B0411241FBECFEF74
S11300C0D0E4DEBFCDBF11E0A0E0B1E0E0E1FEE0AE
S11300D000E00BBF02C007900D92A438B107D9F716
S11300E022E0A4E8B1E001C01D92A83CB207E1F708
S11300F0ACD48CC685CFFC010FB6F8946091C402D1
S11301007091C5028091C6029091C7020FBE3097CC
S113011021F0608371838283938308956093040143
S11301207093050180930601909307016093B701D2
S11301307093B8018093B9019093BA0108958BE04C
S1130140809381008DE790E09093890080938800EC
S113015082E080936F001092850010928400809159
S1130160040190910501A0910601B09107018093CB
S1130170B7019093B801A093B901B093BA018FB7B6
S113018080688FBF08951F920F920FB60F921124AB
S11301908F939F93AF93BF938091B7019091B801D0
S11301A0A091B901B091BA010197A109B109809355
S11301B0B7019093B801A093B901B093BA01892B08
S11301C08A2B8B2B99F481E08093BB0180910401ED
S11301D090910501A0910601B09107018093B701A8
S11301E09093B801A093B901B093BA01BF91AF91B4
S11301F09F918F910F900FBE0F901F90189520E044
S113020030E02830310530F4992314F4289A07C0DB
S1130210289805C0992314F4289801C0289A880FB7
S1130220991F2A9A2A982F5F3F4F2031310549F7A9
S1130230299A29980895181619065CF00895000063
S113024021503109E1F74F5F5F4F8417950719F487
S1130250089540E050E027E033E0F1CF41988BB9B6
S1130260409A0000409882E090E0E5CF089584E64B
S113027090E0E1DF88E3F2DF86E0F0DF8FE0EEDF9D
S113028081E0ECDF8AE090E0D6CF089581E0E6CF0C
S11302900895419A8BB9409A0000409881E090E01B
S11302A0CACF0895813118F48158D8CF0895815563
S11302B0D5CF08951F93CF93DF93803138F0FB019E
S11302C09081992311F18132A0F01FC0FB0190812C
S11302D09923D9F08131C8F4EB0111E0180FE2DF62
S11302E08991D7DF8881882381F0812F1131A9F783
S11302F00CC0EB0111E0180FD5DF8991CADF8881AA
S1130300882319F0812F1132A9F7DF91CF911F9122
S113031008950F931F93CF93DF938B01883068F474
S1130320880F880F880F805C99DFE801085F1F4FF2
S11303308991AFDFC017D107D9F780E88FDFDF914C
S1130340CF911F910F910895EAE7F0E087E8808349
S1130350ACE7B0E08C9180648C938081806480836E
S11303600895ECE7F0E09081987F8770892B808373
S1130370EAE7F0E0808180648083808186FDFDCFA0
S113038080917800909179000895892BA9F580E0F7
S1130390E8DF8093BE0281E0E4DF8093BF02209116
S11303A0BE0230E02E3B310534F081E08093B6018B
S11303B081E090E008952031310534F482E08093A7
S11303C0B60181E090E0089599278031910534F4D5
S11303D083E08093B60181E090E008958E3B91051F
S11303E034F084E08093B60181E090E008951092A7
S11303F0B60181E090E0089580E090E008950F93C5
S11304001F93CF93DF93D82F862F90E06AE070E09C
S11304101BD48B01C82F672B69F4892B29F48D2FEA
S113042041DF80E336DF11C08D2F3CDF80E38C0F8A
S113043030DF0BC08D2F36DF80E3800F2ADF81E0B1
S11304408D0F30DF80E38C0F24DFDF91CF911F917C
S11304500F9108959091B501E92FF0E0EE0FFF1F81
S1130460EE0FFF1FE254FE4F808361839F5F9093E2
S1130470B50108951F93CF93DF93E2ECF2E010816E
S1130480D1817BD487709078992324F40197886F65
S11304909F6F0196C1E0C80F1C1799F36ED4877043
S11304A09078992324F40197886F9F6F01968F5F4A
S11304B0D817A1F3E2ECF2E0C0838183DF91CF91FE
S11304C01F910895EEEBF1E0908141812091B501F7
S11304D02230C0F0E2ECF1E0225030E0220F331F72
S11304E0220F331F2A533E4F8081981307C0818106
S11304F0481304C081E08093C10208953496E21742
S1130500F30791F70895FF920F931F93CF93DF930F
S11305109091B501992309F44BC0F62E082F10E0F1
S1130520C2ECD2E0212F30E0F901EE0FFF1FEE0FF5
S1130530FF1FE254FE4F80818283818183831111E6
S11305401EC0220F331F220F331FF901E254FE4F46
S11305500083F182B7DF8881081324C08981F812EF
S113056021C0E091B501F0E0EE0FFF1FEE0FFF1F79
S1130570E654FE4F638182816DDF7CDF13C0D901B5
S1130580AA0FBB1FAA0FBB1FA254BE4F220F331FBB
S1130590220F331FF901E654FE4F82818C9383812D
S11305A011968C931F5F8091B501181708F4BACF88
S11305B0DF91CF911F910F91FF90089590E0FC017E
S11305C03297E730F10588F4EA5BFF4F72C322E00B
S11305D00DC024E00BC028E009C020E107C020E2E0
S11305E005C020E403C020E801C021E0862F90E08C
S11305F0FC013297E730F10588F4E35BFF4F59C300
S113060082E00DC084E00BC088E009C080E107C02F
S113061080E205C080E403C080E801C081E090E08E
S1130620922B0895EF92FF920F931F93CF93DF9332
S1130630892B01F58091B5018823E1F0CEEBD1E05F
S113064000E010E00F2EF2ECEF2EF2E0FF2EF02D82
S113065069818881B3DFD3DDF70161818081AEDFF9
S1130660CEDD0F5F1F4F24968091B50190E00817EF
S1130670190774F380E090E0DF91CF911F910F91FF
S1130680FF90EF9008959091B501943018F4109272
S1130690C00203C093509093C00235DF6091C00242
S11306A088E0ADDE6091BD018DE1A9CE08951F9370
S11306B0CF93DF93CDB7DEB72C970FB6F894DEBF98
S11306C00FBECDBFAC018CE0E8E0F1E0DE01119695
S11306D001900D928A95E1F790B19095292F287099
S11306E090B1909590714930510508F030C1FA01EC
S11306F0EC5AFF4FDEC21092C1021092B501109263
S1130700B4011092B3011092BC0180E090E077DD57
S113071064E471E081E0CEDD8CE0C4DD82E0B9DD2B
S11307208DE0C0DD83E0B5DD8EE0BCDD80E0B1DDD1
S11307306FE471E080E1BEDD41E050E013C12223AB
S113074009F410C1992309F48FC00CC18091B4013C
S1130750863008F005C188C086E08093B20183E04A
S11307608093B10163E086E075DE63E087E072DECA
S113077063E088E06FDE7EDE89DD62E671E081E0C1
S113078099DD6DE571E081E195DD6091B1018091C4
S1130790B20179DFDFC0992341F0211106C0109224
S11307A0B50174DD40E050E0DDC08091C1028130CC
S11307B009F4B2C08091B601833009F487C0843053
S11307C009F072C096C0992341F0211106C05EDD84
S11307D01092B50140E050E0C5C08091C102813063
S11307E009F49AC08091B601833009F46FC0843053
S11307F009F0B0C07EC0992341F0211106C046DD46
S11308001092B50140E050E0ADC08091C10281304A
S113081009F482C08091B601813009F49BC0823012
S113082009F054C041C0992341F0211106C02EDDC6
S11308301092B50140E050E095C08091C102813032
S113084009F46AC08091B601813009F483C0823012
S113085009F04FC029C08091B3018E3108F45CC007
S113086015DD40E050E07EC01091B401E12FF0E0CE
S1130870EE0FFF1FEC0FFD1F81819281C0DC1F5F13
S11308801093B40142E050E06DC088E08093B2015F
S113089003C081508093B2016091B1018091B20193
S11308A0F2DE44E050E05EC08091B201883018F07E
S11308B01092B20103C08F5F8093B2016091B101C5
S11308C08091B201E0DE45E050E04CC08091B1017E
S11308D0811104C088E08093B10103C081508093EA
S11308E0B1016091B1018091B201CDDE46E050E0EA
S11308F039C08091B101883020F081E08093B1014A
S113090003C08F5F8093B1016091B1018091B20106
S1130910BADE47E050E026C01091B301111111C0B6
S1130920B5DC6AE671E081E0C5DC8091BC01882316
S113093041F066E771E081E1BDDC8FE1B3DC84E086
S1130940A8DC1F5F1093B30148E050E00BC040E007
S113095050E008C08091B201882309F496CF99CF62
S113096043E050E0CA012C960FB6F894DEBF0FBEE8
S1130970CDBFDF91CF911F910895F999FECF1FBA92
S113098092BD81BD60BDFA9AF99A0895F999FECF96
S113099092BD81BDF89A80B5089520B12095287143
S11309A082309105F9F02CF4009769F0019791F0E9
S11309B007C08430910509F442C08CF1059731F1E8
S11309C081E090E0089560E08AE190E0D6DF81E084
S11309D090E008958AE190E0D9DF8093BD0182E040
S11309E090E00895222319F01092B00120C0609184
S11309F0C0022091BD01261738F581E08093BC0127
S1130A008AE190E0BADF83E090E008958091B0013C
S1130A10883CC0F421110BC082E090E008958AE183
S1130A2090E0B4DF8093BD0184E090E0089580916C
S1130A30B0018F5F8093B00185E090E0089582E07B
S1130A4090E0089580E090E00895CF93DF93CDB7D0
S1130A50DEB7E0970FB6F894DEBF0FBECDBF11B876
S1130A601FEF12B914B915B817B918B81AB91BB8C9
S1130A70FEDB6ADC80E090E03EDBCB0181D188E0E4
S1130A80E4E1F1E0DE01119601900D928A95E1F71F
S1130A9088E0ECE1F1E0DE01199601900D928A956F
S1130AA0E1F788E0E4E2F1E0DE01519601900D9275
S1130AB08A95E1F788E0ECE2F1E0DE0159960190D5
S1130AC00D928A95E1F788E0E4E3F1E0DE01919686
S1130AD001900D928A95E1F7BE016F5F7F4F80E030
S1130AE018DCBE01675F7F4F81E013DCBE016F5EDF
S1130AF07F4F82E00EDCBE01675E7F4F83E009DC3E
S1130B00BE016F5D7F4F84E004DC88E0ECE3F1E03C
S1130B10DE01999601900D928A95E1F7E5EAF1E0FC
S1130B20108384E690E0A0E0B0E081839283A38305
S1130B30B48385839683A783B08787E593E0928700
S1130B408187EAE9F1E0108381E090E0A0E0B0E081
S1130B5081839283A383B48385839683A783B08799
S1130B6082E193E092878187EFE8F1E0108382E3EA
S1130B7090E0A0E0B0E081839283A383B483858373
S1130B809683A783B08785EC91E092878187E4E818
S1130B90F1E0108385E090E0A0E0B0E081839283EF
S1130BA0A383B48385839683A783B0878DEC94E075
S1130BB09287818761E070E080E090E0AFDABFDA8D
S1130BC07E0181E3E80EF11C6E01A9E2CA0ED11C7C
S1130BD0F601019111916F01D80115964D915D9126
S1130BE06D917C91189711968D919D910D90BC916A
S1130BF0A02D481759076A077B0781F4F801808103
S1130C000184F285E02D082E000C990B0995D8017A
S1130C108C93F8011582168217821086F80185815B
S1130C209681A781B0850196A11DB11D8583968308
S1130C30A783B087CE14DF0459F68091BB018823C3
S1130C40E1F31092BB01C0CF97FB072E16F400947A
S1130C5006D077FD08D036D007FC05D03EF4909539
S1130C6081959F4F0895709561957F4F0895A1E2F6
S1130C701A2EAA1BBB1BFD010DC0AA1FBB1FEE1F12
S1130C80FF1FA217B307E407F50720F0A21BB30B5D
S1130C90E40BF50B661F771F881F991F1A9469F7D9
S1130CA060957095809590959B01AC01BD01CF0135
S1130CB00895EE0FFF1F0024001C0BBE0790F69151
S1130CC0E02D0994AA1BBB1B51E107C0AA1FBB1F3F
S1130CD0A617B70710F0A61BB70B881F991F5A95C4
S1130CE0A9F780959095BC01CD0108958F929F92AC
S1130CF0AF92BF92CF92DF92EF92FF92CF93DF93A6
S1130D00EC01688179818A819B8161157105810576
S1130D10910521F464E279ED8BE597E02DE133EF61
S1130D2041E050E038D049015A019B01AC01A7EAE7
S1130D30B1E44DD06B017C01ACEEB4EFA50194019C
S1130D4052D0DC01CB018C0D9D1DAE1DBF1DB7FF24
S1130D5003C00197A109B04888839983AA83BB8300
S1130D609F77DF91CF91FF90EF90DF90CF90BF906E
S1130D70AF909F908F900895B9CF80E091E0B6CF67
S1130D80A0E0B0E08093000190930101A0930201E0
S1130D90B09303010895052E97FB16F400940FD029
S1130DA057FD05D064DF07FC02D046F408C0509517
S1130DB04095309521953F4F4F4F5F4F0895909543
S1130DC08095709561957F4F8F4F9F4F08950FD0F9
S1130DD0A59F900DB49F900DA49F800D911D11248B
S1130DE00895B7FFF4CFF3DF821B930B0895A29FFE
S1130DF0B001B39FC001A39F700D811D1124911DEB
S1130E00B29F700D811D1124911D0895F894FFCF98
S1130E100100000001000000000018183C3C7E7E28
S1130E20FFFF0000110A1F151F110E00040E1F1FE3
S1130E300E040000001F1B151B1C1C00001F1B15AB
S1130E401B07070000000015151F1F0084018F01F8
S1130E50A5019A01536E616B652047616D650020A1
S1130E60507265737320537461727421004869670A
S1130E70682053636F72653A200047616D65204FA7
S1130E807665722E2E00484947482053434F5245F9
S1070E9021212100F7
S9030000FC
